{"abi":[{"type":"constructor","inputs":[{"name":"_serviceManager","type":"address","internalType":"contract IServiceManager"},{"name":"_stakeRegistry","type":"address","internalType":"contract IStakeRegistry"},{"name":"_blsApkRegistry","type":"address","internalType":"contract IBLSApkRegistry"},{"name":"_indexRegistry","type":"address","internalType":"contract IIndexRegistry"}],"stateMutability":"nonpayable"},{"type":"function","name":"OPERATOR_CHURN_APPROVAL_TYPEHASH","inputs":[],"outputs":[{"name":"","type":"bytes32","internalType":"bytes32"}],"stateMutability":"view"},{"type":"function","name":"PUBKEY_REGISTRATION_TYPEHASH","inputs":[],"outputs":[{"name":"","type":"bytes32","internalType":"bytes32"}],"stateMutability":"view"},{"type":"function","name":"blsApkRegistry","inputs":[],"outputs":[{"name":"","type":"address","internalType":"contract IBLSApkRegistry"}],"stateMutability":"view"},{"type":"function","name":"calculateOperatorChurnApprovalDigestHash","inputs":[{"name":"registeringOperatorId","type":"bytes32","internalType":"bytes32"},{"name":"operatorKickParams","type":"tuple[]","internalType":"struct IRegistryCoordinator.OperatorKickParam[]","components":[{"name":"quorumNumber","type":"uint8","internalType":"uint8"},{"name":"operator","type":"address","internalType":"address"}]},{"name":"salt","type":"bytes32","internalType":"bytes32"},{"name":"expiry","type":"uint256","internalType":"uint256"}],"outputs":[{"name":"","type":"bytes32","internalType":"bytes32"}],"stateMutability":"view"},{"type":"function","name":"churnApprover","inputs":[],"outputs":[{"name":"","type":"address","internalType":"address"}],"stateMutability":"view"},{"type":"function","name":"createQuorum","inputs":[{"name":"operatorSetParams","type":"tuple","internalType":"struct IRegistryCoordinator.OperatorSetParam","components":[{"name":"maxOperatorCount","type":"uint32","internalType":"uint32"},{"name":"kickBIPsOfOperatorStake","type":"uint16","internalType":"uint16"},{"name":"kickBIPsOfTotalStake","type":"uint16","internalType":"uint16"}]},{"name":"minimumStake","type":"uint96","internalType":"uint96"},{"name":"strategyParams","type":"tuple[]","internalType":"struct IStakeRegistry.StrategyParams[]","components":[{"name":"strategy","type":"address","internalType":"contract IStrategy"},{"name":"multiplier","type":"uint96","internalType":"uint96"}]}],"outputs":[],"stateMutability":"nonpayable"},{"type":"function","name":"deregisterOperator","inputs":[{"name":"quorumNumbers","type":"bytes","internalType":"bytes"}],"outputs":[],"stateMutability":"nonpayable"},{"type":"function","name":"ejectOperator","inputs":[{"name":"operator","type":"address","internalType":"address"},{"name":"quorumNumbers","type":"bytes","internalType":"bytes"}],"outputs":[],"stateMutability":"nonpayable"},{"type":"function","name":"ejector","inputs":[],"outputs":[{"name":"","type":"address","internalType":"address"}],"stateMutability":"view"},{"type":"function","name":"getCurrentQuorumBitmap","inputs":[{"name":"operatorId","type":"bytes32","internalType":"bytes32"}],"outputs":[{"name":"","type":"uint192","internalType":"uint192"}],"stateMutability":"view"},{"type":"function","name":"getOperator","inputs":[{"name":"operator","type":"address","internalType":"address"}],"outputs":[{"name":"","type":"tuple","internalType":"struct IRegistryCoordinator.OperatorInfo","components":[{"name":"operatorId","type":"bytes32","internalType":"bytes32"},{"name":"status","type":"uint8","internalType":"enum IRegistryCoordinator.OperatorStatus"}]}],"stateMutability":"view"},{"type":"function","name":"getOperatorFromId","inputs":[{"name":"operatorId","type":"bytes32","internalType":"bytes32"}],"outputs":[{"name":"","type":"address","internalType":"address"}],"stateMutability":"view"},{"type":"function","name":"getOperatorId","inputs":[{"name":"operator","type":"address","internalType":"address"}],"outputs":[{"name":"","type":"bytes32","internalType":"bytes32"}],"stateMutability":"view"},{"type":"function","name":"getOperatorSetParams","inputs":[{"name":"quorumNumber","type":"uint8","internalType":"uint8"}],"outputs":[{"name":"","type":"tuple","internalType":"struct IRegistryCoordinator.OperatorSetParam","components":[{"name":"maxOperatorCount","type":"uint32","internalType":"uint32"},{"name":"kickBIPsOfOperatorStake","type":"uint16","internalType":"uint16"},{"name":"kickBIPsOfTotalStake","type":"uint16","internalType":"uint16"}]}],"stateMutability":"view"},{"type":"function","name":"getOperatorStatus","inputs":[{"name":"operator","type":"address","internalType":"address"}],"outputs":[{"name":"","type":"uint8","internalType":"enum IRegistryCoordinator.OperatorStatus"}],"stateMutability":"view"},{"type":"function","name":"getQuorumBitmapAtBlockNumberByIndex","inputs":[{"name":"operatorId","type":"bytes32","internalType":"bytes32"},{"name":"blockNumber","type":"uint32","internalType":"uint32"},{"name":"index","type":"uint256","internalType":"uint256"}],"outputs":[{"name":"","type":"uint192","internalType":"uint192"}],"stateMutability":"view"},{"type":"function","name":"getQuorumBitmapHistoryLength","inputs":[{"name":"operatorId","type":"bytes32","internalType":"bytes32"}],"outputs":[{"name":"","type":"uint256","internalType":"uint256"}],"stateMutability":"view"},{"type":"function","name":"getQuorumBitmapIndicesAtBlockNumber","inputs":[{"name":"blockNumber","type":"uint32","internalType":"uint32"},{"name":"operatorIds","type":"bytes32[]","internalType":"bytes32[]"}],"outputs":[{"name":"","type":"uint32[]","internalType":"uint32[]"}],"stateMutability":"view"},{"type":"function","name":"getQuorumBitmapUpdateByIndex","inputs":[{"name":"operatorId","type":"bytes32","internalType":"bytes32"},{"name":"index","type":"uint256","internalType":"uint256"}],"outputs":[{"name":"","type":"tuple","internalType":"struct IRegistryCoordinator.QuorumBitmapUpdate","components":[{"name":"updateBlockNumber","type":"uint32","internalType":"uint32"},{"name":"nextUpdateBlockNumber","type":"uint32","internalType":"uint32"},{"name":"quorumBitmap","type":"uint192","internalType":"uint192"}]}],"stateMutability":"view"},{"type":"function","name":"indexRegistry","inputs":[],"outputs":[{"name":"","type":"address","internalType":"contract IIndexRegistry"}],"stateMutability":"view"},{"type":"function","name":"initialize","inputs":[{"name":"_initialOwner","type":"address","internalType":"address"},{"name":"_churnApprover","type":"address","internalType":"address"},{"name":"_ejector","type":"address","internalType":"address"},{"name":"_pauserRegistry","type":"address","internalType":"contract IPauserRegistry"},{"name":"_initialPausedStatus","type":"uint256","internalType":"uint256"},{"name":"_operatorSetParams","type":"tuple[]","internalType":"struct IRegistryCoordinator.OperatorSetParam[]","components":[{"name":"maxOperatorCount","type":"uint32","internalType":"uint32"},{"name":"kickBIPsOfOperatorStake","type":"uint16","internalType":"uint16"},{"name":"kickBIPsOfTotalStake","type":"uint16","internalType":"uint16"}]},{"name":"_minimumStakes","type":"uint96[]","internalType":"uint96[]"},{"name":"_strategyParams","type":"tuple[][]","internalType":"struct IStakeRegistry.StrategyParams[][]","components":[{"name":"strategy","type":"address","internalType":"contract IStrategy"},{"name":"multiplier","type":"uint96","internalType":"uint96"}]}],"outputs":[],"stateMutability":"nonpayable"},{"type":"function","name":"isChurnApproverSaltUsed","inputs":[{"name":"","type":"bytes32","internalType":"bytes32"}],"outputs":[{"name":"","type":"bool","internalType":"bool"}],"stateMutability":"view"},{"type":"function","name":"numRegistries","inputs":[],"outputs":[{"name":"","type":"uint256","internalType":"uint256"}],"stateMutability":"view"},{"type":"function","name":"owner","inputs":[],"outputs":[{"name":"","type":"address","internalType":"address"}],"stateMutability":"view"},{"type":"function","name":"pause","inputs":[{"name":"newPausedStatus","type":"uint256","internalType":"uint256"}],"outputs":[],"stateMutability":"nonpayable"},{"type":"function","name":"pauseAll","inputs":[],"outputs":[],"stateMutability":"nonpayable"},{"type":"function","name":"paused","inputs":[{"name":"index","type":"uint8","internalType":"uint8"}],"outputs":[{"name":"","type":"bool","internalType":"bool"}],"stateMutability":"view"},{"type":"function","name":"paused","inputs":[],"outputs":[{"name":"","type":"uint256","internalType":"uint256"}],"stateMutability":"view"},{"type":"function","name":"pauserRegistry","inputs":[],"outputs":[{"name":"","type":"address","internalType":"contract IPauserRegistry"}],"stateMutability":"view"},{"type":"function","name":"pubkeyRegistrationMessageHash","inputs":[{"name":"operator","type":"address","internalType":"address"}],"outputs":[{"name":"","type":"tuple","internalType":"struct BN254.G1Point","components":[{"name":"X","type":"uint256","internalType":"uint256"},{"name":"Y","type":"uint256","internalType":"uint256"}]}],"stateMutability":"view"},{"type":"function","name":"quorumCount","inputs":[],"outputs":[{"name":"","type":"uint8","internalType":"uint8"}],"stateMutability":"view"},{"type":"function","name":"quorumUpdateBlockNumber","inputs":[{"name":"","type":"uint8","internalType":"uint8"}],"outputs":[{"name":"","type":"uint256","internalType":"uint256"}],"stateMutability":"view"},{"type":"function","name":"registerOperator","inputs":[{"name":"quorumNumbers","type":"bytes","internalType":"bytes"},{"name":"socket","type":"string","internalType":"string"},{"name":"params","type":"tuple","internalType":"struct IBLSApkRegistry.PubkeyRegistrationParams","components":[{"name":"pubkeyRegistrationSignature","type":"tuple","internalType":"struct BN254.G1Point","components":[{"name":"X","type":"uint256","internalType":"uint256"},{"name":"Y","type":"uint256","internalType":"uint256"}]},{"name":"pubkeyG1","type":"tuple","internalType":"struct BN254.G1Point","components":[{"name":"X","type":"uint256","internalType":"uint256"},{"name":"Y","type":"uint256","internalType":"uint256"}]},{"name":"pubkeyG2","type":"tuple","internalType":"struct BN254.G2Point","components":[{"name":"X","type":"uint256[2]","internalType":"uint256[2]"},{"name":"Y","type":"uint256[2]","internalType":"uint256[2]"}]}]},{"name":"operatorSignature","type":"tuple","internalType":"struct ISignatureUtils.SignatureWithSaltAndExpiry","components":[{"name":"signature","type":"bytes","internalType":"bytes"},{"name":"salt","type":"bytes32","internalType":"bytes32"},{"name":"expiry","type":"uint256","internalType":"uint256"}]}],"outputs":[],"stateMutability":"nonpayable"},{"type":"function","name":"registerOperatorWithChurn","inputs":[{"name":"quorumNumbers","type":"bytes","internalType":"bytes"},{"name":"socket","type":"string","internalType":"string"},{"name":"params","type":"tuple","internalType":"struct IBLSApkRegistry.PubkeyRegistrationParams","components":[{"name":"pubkeyRegistrationSignature","type":"tuple","internalType":"struct BN254.G1Point","components":[{"name":"X","type":"uint256","internalType":"uint256"},{"name":"Y","type":"uint256","internalType":"uint256"}]},{"name":"pubkeyG1","type":"tuple","internalType":"struct BN254.G1Point","components":[{"name":"X","type":"uint256","internalType":"uint256"},{"name":"Y","type":"uint256","internalType":"uint256"}]},{"name":"pubkeyG2","type":"tuple","internalType":"struct BN254.G2Point","components":[{"name":"X","type":"uint256[2]","internalType":"uint256[2]"},{"name":"Y","type":"uint256[2]","internalType":"uint256[2]"}]}]},{"name":"operatorKickParams","type":"tuple[]","internalType":"struct IRegistryCoordinator.OperatorKickParam[]","components":[{"name":"quorumNumber","type":"uint8","internalType":"uint8"},{"name":"operator","type":"address","internalType":"address"}]},{"name":"churnApproverSignature","type":"tuple","internalType":"struct ISignatureUtils.SignatureWithSaltAndExpiry","components":[{"name":"signature","type":"bytes","internalType":"bytes"},{"name":"salt","type":"bytes32","internalType":"bytes32"},{"name":"expiry","type":"uint256","internalType":"uint256"}]},{"name":"operatorSignature","type":"tuple","internalType":"struct ISignatureUtils.SignatureWithSaltAndExpiry","components":[{"name":"signature","type":"bytes","internalType":"bytes"},{"name":"salt","type":"bytes32","internalType":"bytes32"},{"name":"expiry","type":"uint256","internalType":"uint256"}]}],"outputs":[],"stateMutability":"nonpayable"},{"type":"function","name":"registries","inputs":[{"name":"","type":"uint256","internalType":"uint256"}],"outputs":[{"name":"","type":"address","internalType":"address"}],"stateMutability":"view"},{"type":"function","name":"renounceOwnership","inputs":[],"outputs":[],"stateMutability":"nonpayable"},{"type":"function","name":"serviceManager","inputs":[],"outputs":[{"name":"","type":"address","internalType":"contract IServiceManager"}],"stateMutability":"view"},{"type":"function","name":"setChurnApprover","inputs":[{"name":"_churnApprover","type":"address","internalType":"address"}],"outputs":[],"stateMutability":"nonpayable"},{"type":"function","name":"setEjector","inputs":[{"name":"_ejector","type":"address","internalType":"address"}],"outputs":[],"stateMutability":"nonpayable"},{"type":"function","name":"setOperatorSetParams","inputs":[{"name":"quorumNumber","type":"uint8","internalType":"uint8"},{"name":"operatorSetParams","type":"tuple","internalType":"struct IRegistryCoordinator.OperatorSetParam","components":[{"name":"maxOperatorCount","type":"uint32","internalType":"uint32"},{"name":"kickBIPsOfOperatorStake","type":"uint16","internalType":"uint16"},{"name":"kickBIPsOfTotalStake","type":"uint16","internalType":"uint16"}]}],"outputs":[],"stateMutability":"nonpayable"},{"type":"function","name":"setPauserRegistry","inputs":[{"name":"newPauserRegistry","type":"address","internalType":"contract IPauserRegistry"}],"outputs":[],"stateMutability":"nonpayable"},{"type":"function","name":"stakeRegistry","inputs":[],"outputs":[{"name":"","type":"address","internalType":"contract IStakeRegistry"}],"stateMutability":"view"},{"type":"function","name":"transferOwnership","inputs":[{"name":"newOwner","type":"address","internalType":"address"}],"outputs":[],"stateMutability":"nonpayable"},{"type":"function","name":"unpause","inputs":[{"name":"newPausedStatus","type":"uint256","internalType":"uint256"}],"outputs":[],"stateMutability":"nonpayable"},{"type":"function","name":"updateOperators","inputs":[{"name":"operators","type":"address[]","internalType":"address[]"}],"outputs":[],"stateMutability":"nonpayable"},{"type":"function","name":"updateOperatorsForQuorum","inputs":[{"name":"operatorsPerQuorum","type":"address[][]","internalType":"address[][]"},{"name":"quorumNumbers","type":"bytes","internalType":"bytes"}],"outputs":[],"stateMutability":"nonpayable"},{"type":"function","name":"updateSocket","inputs":[{"name":"socket","type":"string","internalType":"string"}],"outputs":[],"stateMutability":"nonpayable"},{"type":"event","name":"ChurnApproverUpdated","inputs":[{"name":"prevChurnApprover","type":"address","indexed":false,"internalType":"address"},{"name":"newChurnApprover","type":"address","indexed":false,"internalType":"address"}],"anonymous":false},{"type":"event","name":"EjectorUpdated","inputs":[{"name":"prevEjector","type":"address","indexed":false,"internalType":"address"},{"name":"newEjector","type":"address","indexed":false,"internalType":"address"}],"anonymous":false},{"type":"event","name":"Initialized","inputs":[{"name":"version","type":"uint8","indexed":false,"internalType":"uint8"}],"anonymous":false},{"type":"event","name":"OperatorDeregistered","inputs":[{"name":"operator","type":"address","indexed":true,"internalType":"address"},{"name":"operatorId","type":"bytes32","indexed":true,"internalType":"bytes32"}],"anonymous":false},{"type":"event","name":"OperatorRegistered","inputs":[{"name":"operator","type":"address","indexed":true,"internalType":"address"},{"name":"operatorId","type":"bytes32","indexed":true,"internalType":"bytes32"}],"anonymous":false},{"type":"event","name":"OperatorSetParamsUpdated","inputs":[{"name":"quorumNumber","type":"uint8","indexed":true,"internalType":"uint8"},{"name":"operatorSetParams","type":"tuple","indexed":false,"internalType":"struct IRegistryCoordinator.OperatorSetParam","components":[{"name":"maxOperatorCount","type":"uint32","internalType":"uint32"},{"name":"kickBIPsOfOperatorStake","type":"uint16","internalType":"uint16"},{"name":"kickBIPsOfTotalStake","type":"uint16","internalType":"uint16"}]}],"anonymous":false},{"type":"event","name":"OperatorSocketUpdate","inputs":[{"name":"operatorId","type":"bytes32","indexed":true,"internalType":"bytes32"},{"name":"socket","type":"string","indexed":false,"internalType":"string"}],"anonymous":false},{"type":"event","name":"OwnershipTransferred","inputs":[{"name":"previousOwner","type":"address","indexed":true,"internalType":"address"},{"name":"newOwner","type":"address","indexed":true,"internalType":"address"}],"anonymous":false},{"type":"event","name":"Paused","inputs":[{"name":"account","type":"address","indexed":true,"internalType":"address"},{"name":"newPausedStatus","type":"uint256","indexed":false,"internalType":"uint256"}],"anonymous":false},{"type":"event","name":"PauserRegistrySet","inputs":[{"name":"pauserRegistry","type":"address","indexed":false,"internalType":"contract IPauserRegistry"},{"name":"newPauserRegistry","type":"address","indexed":false,"internalType":"contract IPauserRegistry"}],"anonymous":false},{"type":"event","name":"QuorumBlockNumberUpdated","inputs":[{"name":"quorumNumber","type":"uint8","indexed":true,"internalType":"uint8"},{"name":"blocknumber","type":"uint256","indexed":false,"internalType":"uint256"}],"anonymous":false},{"type":"event","name":"Unpaused","inputs":[{"name":"account","type":"address","indexed":true,"internalType":"address"},{"name":"newPausedStatus","type":"uint256","indexed":false,"internalType":"uint256"}],"anonymous":false}],"bytecode":{"object":"0x6101c06040523480156200001257600080fd5b506040516200633f3803806200633f83398101604081905262000035916200024e565b604080518082018252601681527f4156535265676973747279436f6f7264696e61746f720000000000000000000060208083019182528351808501909452600684526576302e302e3160d01b908401528151902060e08190527f6bda7e3f385e48841048390444cced5cc795af87758af67622e5f4f0882c4a996101008190524660a0529192917f8b73c3c69bb8fe3d512ecc4cf759cc79239f7b179b0ffacaa9a75d522b39400f6200012d8184846040805160208101859052908101839052606081018290524660808201523060a082015260009060c0016040516020818303038152906040528051906020012090509392505050565b6080523060c05261012052505050506001600160a01b0384811661014052838116610180528281166101605281166101a0526200016962000173565b50505050620002b6565b600054610100900460ff1615620001e05760405162461bcd60e51b815260206004820152602760248201527f496e697469616c697a61626c653a20636f6e747261637420697320696e697469604482015266616c697a696e6760c81b606482015260840160405180910390fd5b60005460ff908116101562000233576000805460ff191660ff9081179091556040519081527f7f26b83ff96e1f2b6a682f133852f6798a09c465da95921460cefb38474024989060200160405180910390a15b565b6001600160a01b03811681146200024b57600080fd5b50565b600080600080608085870312156200026557600080fd5b8451620002728162000235565b6020860151909450620002858162000235565b6040860151909350620002988162000235565b6060860151909250620002ab8162000235565b939692955090935050565b60805160a05160c05160e05161010051610120516101405161016051610180516101a051615f81620003be600039600081816106240152818161118c0152818161223e01528181612fe1015281816138680152613d0401526000818161057c015281816121c90152818161264901528181612f61015281816137bf01528181613a150152613c8301526000818161054201528181610eae0152818161220701528181612ee3015281816130c90152818161313f0152818161373f0152613d8001526000818161048601528181612e39015261368701526000613f5c01526000613fab01526000613f8601526000613edf01526000613f0901526000613f330152615f816000f3fe608060405234801561001057600080fd5b50600436106102945760003560e01c80635df4594611610167578063a50857bf116100ce578063dd8283f311610087578063dd8283f3146106f5578063e65797ad14610708578063f2fde38b146107ab578063f8581191146107be578063fabc1cbc146107d1578063fd39105a146107e457600080fd5b8063a50857bf1461066d578063c391425e14610680578063ca0de882146106a0578063ca4f2d97146106c7578063d72d8dd6146106da578063d75b4c88146106e257600080fd5b8063886f119511610120578063886f1195146105cc5780638da5cb5b146105e55780639aa1653d146105ed5780639b5d177b1461060c5780639e9923c21461061f5780639feab8591461064657600080fd5b80635df459461461053d5780636347c9001461056457806368304835146105775780636e3b17db1461059e578063715018a6146105b1578063871ef049146105b957600080fd5b806328f61b311161020b5780635140a548116101c45780635140a548146104c85780635865c60c146104db578063595c6a67146104fb5780635ac86ab7146105035780635b0b829f146105225780635c975abb1461053557600080fd5b806328f61b3114610435578063296bb0641461044857806329d1e0c31461045b5780632cdd1e861461046e5780633998fdd3146104815780633c2a7f4c146104a857600080fd5b806310d67a2f1161025d57806310d67a2f1461034a57806313542a4e1461035d578063136439dd146103865780631478851f146103995780631eb812da146103cc578063249a0c421461041557600080fd5b8062cf2ab51461029957806303fd3492146102ae57806304ec6351146102e1578063054310e61461030c5780630cf4b76714610337575b600080fd5b6102ac6102a7366004614a5c565b610820565b005b6102ce6102bc366004614a9d565b60009081526098602052604090205490565b6040519081526020015b60405180910390f35b6102f46102ef366004614ac8565b610936565b6040516001600160c01b0390911681526020016102d8565b609d5461031f906001600160a01b031681565b6040516001600160a01b0390911681526020016102d8565b6102ac610345366004614be7565b610b2c565b6102ac610358366004614c5c565b610c14565b6102ce61036b366004614c5c565b6001600160a01b031660009081526099602052604090205490565b6102ac610394366004614a9d565b610cc7565b6103bc6103a7366004614a9d565b609a6020526000908152604090205460ff1681565b60405190151581526020016102d8565b6103df6103da366004614c79565b610e04565b60408051825163ffffffff908116825260208085015190911690820152918101516001600160c01b0316908201526060016102d8565b6102ce610423366004614cac565b609b6020526000908152604090205481565b609e5461031f906001600160a01b031681565b61031f610456366004614a9d565b610e95565b6102ac610469366004614c5c565b610f21565b6102ac61047c366004614c5c565b610f32565b61031f7f000000000000000000000000000000000000000000000000000000000000000081565b6104bb6104b6366004614c5c565b610f43565b6040516102d89190614cc7565b6102ac6104d6366004614d1f565b610fc2565b6104ee6104e9366004614c5c565b61154c565b6040516102d89190614dc2565b6102ac6115c0565b6103bc610511366004614cac565b6001805460ff9092161b9081161490565b6102ac610530366004614e47565b61168c565b6001546102ce565b61031f7f000000000000000000000000000000000000000000000000000000000000000081565b61031f610572366004614a9d565b611723565b61031f7f000000000000000000000000000000000000000000000000000000000000000081565b6102ac6105ac366004614e7b565b61174d565b6102ac61180d565b6102f46105c7366004614a9d565b611821565b60005461031f906201000090046001600160a01b031681565b61031f61182c565b6096546105fa9060ff1681565b60405160ff90911681526020016102d8565b6102ac61061a366004614f9b565b611845565b61031f7f000000000000000000000000000000000000000000000000000000000000000081565b6102ce7f2bd82124057f0913bc3b772ce7b83e8057c1ad1f3510fc83778be20f10ec5de681565b6102ac61067b366004615094565b611b7c565b61069361068e36600461515f565b611d00565b6040516102d89190615209565b6102ce7ff843b3116d574f43e69f8dda5d93ebf11dccc4a465983f9453058005cd6b34a081565b6102ac6106d5366004615253565b611fae565b609c546102ce565b6102ac6106f0366004615339565b612015565b6102ac6107033660046154ec565b612028565b610777610716366004614cac565b60408051606080820183526000808352602080840182905292840181905260ff9490941684526097825292829020825193840183525463ffffffff8116845261ffff600160201b8204811692850192909252600160301b9004169082015290565b60408051825163ffffffff16815260208084015161ffff9081169183019190915292820151909216908201526060016102d8565b6102ac6107b9366004614c5c565b61232c565b6102ce6107cc366004615600565b6123a2565b6102ac6107df366004614a9d565b6123e9565b6108136107f2366004614c5c565b6001600160a01b031660009081526099602052604090206001015460ff1690565b6040516102d891906156b5565b600154600290600490811614156108525760405162461bcd60e51b8152600401610849906156c3565b60405180910390fd5b60005b82811015610930576000848483818110610871576108716156fa565b90506020020160208101906108869190614c5c565b6001600160a01b03811660009081526099602090815260408083208151808301909252805482526001810154949550929390929183019060ff1660028111156108d1576108d1614d8a565b60028111156108e2576108e2614d8a565b905250805190915060006108f582612545565b9050600061090b826001600160c01b03166125ae565b905061091885858361260b565b5050505050808061092890615726565b915050610855565b50505050565b6000838152609860205260408120805482919084908110610959576109596156fa565b600091825260209182902060408051606081018252929091015463ffffffff808216808552600160201b8304821695850195909552600160401b9091046001600160c01b03169183019190915290925085161015610a535760405162461bcd60e51b815260206004820152606560248201527f5265676973747279436f6f7264696e61746f722e67657451756f72756d42697460448201527f6d61704174426c6f636b4e756d6265724279496e6465783a2071756f72756d4260648201527f69746d61705570646174652069732066726f6d20616674657220626c6f636b4e6084820152643ab6b132b960d91b60a482015260c401610849565b602081015163ffffffff161580610a795750806020015163ffffffff168463ffffffff16105b610b205760405162461bcd60e51b815260206004820152606660248201527f5265676973747279436f6f7264696e61746f722e67657451756f72756d42697460448201527f6d61704174426c6f636b4e756d6265724279496e6465783a2071756f72756d4260648201527f69746d61705570646174652069732066726f6d206265666f726520626c6f636b608482015265273ab6b132b960d11b60a482015260c401610849565b60400151949350505050565b60013360009081526099602052604090206001015460ff166002811115610b5557610b55614d8a565b14610bc85760405162461bcd60e51b815260206004820152603c60248201527f5265676973747279436f6f7264696e61746f722e757064617465536f636b657460448201527f3a206f70657261746f72206973206e6f742072656769737465726564000000006064820152608401610849565b33600090815260996020526040908190205490517fec2963ab21c1e50e1e582aa542af2e4bf7bf38e6e1403c27b42e1c5d6e621eaa90610c09908490615799565b60405180910390a250565b600060029054906101000a90046001600160a01b03166001600160a01b031663eab66d7a6040518163ffffffff1660e01b8152600401602060405180830381865afa158015610c67573d6000803e3d6000fd5b505050506040513d601f19601f82011682018060405250810190610c8b91906157ac565b6001600160a01b0316336001600160a01b031614610cbb5760405162461bcd60e51b8152600401610849906157c9565b610cc4816126f8565b50565b60005460405163237dfb4760e11b8152336004820152620100009091046001600160a01b0316906346fbf68e90602401602060405180830381865afa158015610d14573d6000803e3d6000fd5b505050506040513d601f19601f82011682018060405250810190610d389190615813565b610d545760405162461bcd60e51b815260040161084990615835565b60015481811614610dcd5760405162461bcd60e51b815260206004820152603860248201527f5061757361626c652e70617573653a20696e76616c696420617474656d70742060448201527f746f20756e70617573652066756e6374696f6e616c69747900000000000000006064820152608401610849565b600181905560405181815233907fab40a374bc51de372200a8bc981af8c9ecdc08dfdaef0bb6e09f88f3c616ef3d90602001610c09565b60408051606081018252600080825260208201819052918101919091526000838152609860205260409020805483908110610e4157610e416156fa565b600091825260209182902060408051606081018252919092015463ffffffff8082168352600160201b820416938201939093526001600160c01b03600160401b909304929092169082015290505b92915050565b6040516308f6629d60e31b8152600481018290526000907f00000000000000000000000000000000000000000000000000000000000000006001600160a01b0316906347b314e890602401602060405180830381865afa158015610efd573d6000803e3d6000fd5b505050506040513d601f19601f82011682018060405250810190610e8f91906157ac565b610f296127fd565b610cc48161285c565b610f3a6127fd565b610cc4816128c5565b6040805180820190915260008082526020820152610e8f610fbd7f2bd82124057f0913bc3b772ce7b83e8057c1ad1f3510fc83778be20f10ec5de684604051602001610fa29291909182526001600160a01b0316602082015260400190565b6040516020818303038152906040528051906020012061292e565b61297c565b60015460029060049081161415610feb5760405162461bcd60e51b8152600401610849906156c3565b600061103384848080601f0160208091040260200160405190810160405280939291908181526020018383808284376000920191909152505060965460ff169150612a0c9050565b905061103e81612ac5565b6110ae5760405162461bcd60e51b81526020600482015260476024820152600080516020615ecc83398151915260448201527f6f7273466f7251756f72756d3a20736f6d652071756f72756d7320646f206e6f6064820152661d08195e1a5cdd60ca1b608482015260a401610849565b84831461111d5760405162461bcd60e51b81526020600482015260436024820152600080516020615ecc83398151915260448201527f6f7273466f7251756f72756d3a20696e707574206c656e677468206d69736d616064820152620e8c6d60eb1b608482015260a401610849565b60005b8381101561154357600085858381811061113c5761113c6156fa565b919091013560f81c9150369050600089898581811061115d5761115d6156fa565b905060200281019061116f919061587d565b6040516379a0849160e11b815260ff8616600482015291935091507f00000000000000000000000000000000000000000000000000000000000000006001600160a01b03169063f341092290602401602060405180830381865afa1580156111db573d6000803e3d6000fd5b505050506040513d601f19601f820116820180604052508101906111ff91906158c6565b63ffffffff16811461129b5760405162461bcd60e51b81526020600482015260656024820152600080516020615ecc83398151915260448201527f6f7273466f7251756f72756d3a206e756d626572206f6620757064617465642060648201527f6f70657261746f727320646f6573206e6f74206d617463682071756f72756d206084820152641d1bdd185b60da1b60a482015260c401610849565b6000805b828110156114e25760008484838181106112bb576112bb6156fa565b90506020020160208101906112d09190614c5c565b6001600160a01b03811660009081526099602090815260408083208151808301909252805482526001810154949550929390929183019060ff16600281111561131b5761131b614d8a565b600281111561132c5761132c614d8a565b9052508051909150600061133f82612545565b905060016001600160c01b03821660ff8b161c8116146113c35760405162461bcd60e51b815260206004820152604460248201819052600080516020615ecc833981519152908201527f6f7273466f7251756f72756d3a206f70657261746f72206e6f7420696e2071756064820152636f72756d60e01b608482015260a401610849565b856001600160a01b0316846001600160a01b03161161146e5760405162461bcd60e51b81526020600482015260676024820152600080516020615ecc83398151915260448201527f6f7273466f7251756f72756d3a206f70657261746f7273206172726179206d7560648201527f737420626520736f7274656420696e20617363656e64696e6720616464726573608482015266399037b93232b960c91b60a482015260c401610849565b506114cc83838f8f8d908e600161148591906158e3565b92611492939291906158fb565b8080601f01602080910402602001604051908101604052809392919081815260200183838082843760009201919091525061260b92505050565b509092506114db905081615726565b905061129f565b5060ff84166000818152609b6020908152604091829020439081905591519182527f46077d55330763f16269fd75e5761663f4192d2791747c0189b16ad31db07db4910160405180910390a2505050508061153c90615726565b9050611120565b50505050505050565b60408051808201909152600080825260208201526001600160a01b0382166000908152609960209081526040918290208251808401909352805483526001810154909183019060ff1660028111156115a6576115a6614d8a565b60028111156115b7576115b7614d8a565b90525092915050565b60005460405163237dfb4760e11b8152336004820152620100009091046001600160a01b0316906346fbf68e90602401602060405180830381865afa15801561160d573d6000803e3d6000fd5b505050506040513d601f19601f820116820180604052508101906116319190615813565b61164d5760405162461bcd60e51b815260040161084990615835565b600019600181905560405190815233907fab40a374bc51de372200a8bc981af8c9ecdc08dfdaef0bb6e09f88f3c616ef3d9060200160405180910390a2565b6116946127fd565b609654829060ff908116908216106117145760405162461bcd60e51b815260206004820152603760248201527f5265676973747279436f6f7264696e61746f722e71756f72756d45786973747360448201527f3a2071756f72756d20646f6573206e6f742065786973740000000000000000006064820152608401610849565b61171e8383612af8565b505050565b609c818154811061173357600080fd5b6000918252602090912001546001600160a01b0316905081565b609e546001600160a01b031633146117cd5760405162461bcd60e51b815260206004820152603a60248201527f5265676973747279436f6f7264696e61746f722e6f6e6c79456a6563746f723a60448201527f2063616c6c6572206973206e6f742074686520656a6563746f720000000000006064820152608401610849565b61171e8383838080601f016020809104026020016040519081016040528093929190818152602001838380828437600092019190915250612ba592505050565b6118156127fd565b61181f6000613055565b565b6000610e8f82612545565b60006118406064546001600160a01b031690565b905090565b60018054600091908116141561186d5760405162461bcd60e51b8152600401610849906156c3565b8389146118f05760405162461bcd60e51b8152602060048201526044602482018190527f5265676973747279436f6f7264696e61746f722e72656769737465724f706572908201527f61746f7257697468436875726e3a20696e707574206c656e677468206d69736d6064820152630c2e8c6d60e31b608482015260a401610849565b60006118fc33886130a7565b905061195b818787808060200260200160405190810160405280939291908181526020016000905b828210156119505761194160408302860136819003810190615925565b81526020019060010190611924565b5050505050866131d8565b60006119a233838e8e8e8e8080601f0160208091040260200160405190810160405280939291908181526020018383808284376000920191909152508c9250613362915050565b905060005b8b811015611b6d576000609760008f8f858181106119c7576119c76156fa565b919091013560f81c82525060208082019290925260409081016000208151606081018352905463ffffffff811680835261ffff600160201b8304811695840195909552600160301b90910490931691810191909152845180519193509084908110611a3457611a346156fa565b602002602001015163ffffffff161115611b5a57611ad58e8e84818110611a5d57611a5d6156fa565b9050013560f81c60f81b60f81c84604001518481518110611a8057611a806156fa565b60200260200101513386602001518681518110611a9f57611a9f6156fa565b60200260200101518d8d88818110611ab957611ab96156fa565b905060400201803603810190611acf9190615925565b866138f6565b611b5a898984818110611aea57611aea6156fa565b9050604002016020016020810190611b029190614c5c565b8f8f8590866001611b1391906158e3565b92611b20939291906158fb565b8080601f016020809104026020016040519081016040528093929190818152602001838380828437600092019190915250612ba592505050565b5080611b6581615726565b9150506119a7565b50505050505050505050505050565b600180546000919081161415611ba45760405162461bcd60e51b8152600401610849906156c3565b6000611bb033856130a7565b90506000611bf933838b8b8b8b8080601f0160208091040260200160405190810160405280939291908181526020018383808284376000920191909152508c9250613362915050565b51905060005b88811015611cf45760008a8a83818110611c1b57611c1b6156fa565b919091013560f81c600081815260976020526040902054855191935063ffffffff169150849084908110611c5157611c516156fa565b602002602001015163ffffffff161115611ce15760405162461bcd60e51b8152602060048201526044602482018190527f5265676973747279436f6f7264696e61746f722e72656769737465724f706572908201527f61746f723a206f70657261746f7220636f756e742065786365656473206d6178606482015263696d756d60e01b608482015260a401610849565b5080611cec81615726565b915050611bff565b50505050505050505050565b6060600082516001600160401b03811115611d1d57611d1d614b00565b604051908082528060200260200182016040528015611d46578160200160208202803683370190505b50905060005b8351811015611fa657600060986000868481518110611d6d57611d6d6156fa565b6020026020010151815260200190815260200160002080549050905060005b81811015611f91578663ffffffff1660986000888681518110611db157611db16156fa565b6020026020010151815260200190815260200160002060018385611dd59190615941565b611ddf9190615941565b81548110611def57611def6156fa565b60009182526020909120015463ffffffff1611611f7f57600060986000888681518110611e1e57611e1e6156fa565b6020026020010151815260200190815260200160002060018385611e429190615941565b611e4c9190615941565b81548110611e5c57611e5c6156fa565b600091825260209091200154600160201b900463ffffffff169050801580611e8f57508763ffffffff168163ffffffff16115b611f375760405162461bcd60e51b815260206004820152606760248201527f5265676973747279436f6f7264696e61746f722e67657451756f72756d42697460448201527f6d6170496e64696365734174426c6f636b4e756d6265723a206f70657261746f60648201527f72496420686173206e6f2071756f72756d4269746d61707320617420626c6f6360848201526635a73ab6b132b960c91b60a482015260c401610849565b6001611f438385615941565b611f4d9190615941565b858581518110611f5f57611f5f6156fa565b602002602001019063ffffffff16908163ffffffff168152505050611f91565b80611f8981615726565b915050611d8c565b50508080611f9e90615726565b915050611d4c565b509392505050565b6001805460029081161415611fd55760405162461bcd60e51b8152600401610849906156c3565b61171e3384848080601f016020809104026020016040519081016040528093929190818152602001838380828437600092019190915250612ba592505050565b61201d6127fd565b61171e838383613bcb565b600054610100900460ff16158080156120485750600054600160ff909116105b806120625750303b158015612062575060005460ff166001145b6120c55760405162461bcd60e51b815260206004820152602e60248201527f496e697469616c697a61626c653a20636f6e747261637420697320616c72656160448201526d191e481a5b9a5d1a585b1a5e995960921b6064820152608401610849565b6000805460ff1916600117905580156120e8576000805461ff0019166101001790555b825184511480156120fa575081518351145b6121645760405162461bcd60e51b815260206004820152603560248201527f5265676973747279436f6f7264696e61746f722e696e697469616c697a653a206044820152740d2dce0eae840d8cadccee8d040dad2e6dac2e8c6d605b1b6064820152608401610849565b61216d89613055565b6121778686613de2565b6121808861285c565b612189876128c5565b609c80546001818101835560008381527faf85b9071dfafeac1409d3f1d19bafc9bc7c37974cde8df0ee6168f0086e539c92830180546001600160a01b037f000000000000000000000000000000000000000000000000000000000000000081166001600160a01b03199283161790925585548085018755850180547f0000000000000000000000000000000000000000000000000000000000000000841690831617905585549384019095559190920180547f000000000000000000000000000000000000000000000000000000000000000090921691909316179091555b84518110156122da576122c8858281518110612287576122876156fa565b60200260200101518583815181106122a1576122a16156fa565b60200260200101518584815181106122bb576122bb6156fa565b6020026020010151613bcb565b806122d281615726565b915050612269565b508015612321576000805461ff0019169055604051600181527f7f26b83ff96e1f2b6a682f133852f6798a09c465da95921460cefb38474024989060200160405180910390a15b505050505050505050565b6123346127fd565b6001600160a01b0381166123995760405162461bcd60e51b815260206004820152602660248201527f4f776e61626c653a206e6577206f776e657220697320746865207a65726f206160448201526564647265737360d01b6064820152608401610849565b610cc481613055565b60006123e07ff843b3116d574f43e69f8dda5d93ebf11dccc4a465983f9453058005cd6b34a086868686604051602001610fa2959493929190615958565b95945050505050565b600060029054906101000a90046001600160a01b03166001600160a01b031663eab66d7a6040518163ffffffff1660e01b8152600401602060405180830381865afa15801561243c573d6000803e3d6000fd5b505050506040513d601f19601f8201168201806040525081019061246091906157ac565b6001600160a01b0316336001600160a01b0316146124905760405162461bcd60e51b8152600401610849906157c9565b60015419811960015419161461250e5760405162461bcd60e51b815260206004820152603860248201527f5061757361626c652e756e70617573653a20696e76616c696420617474656d7060448201527f7420746f2070617573652066756e6374696f6e616c69747900000000000000006064820152608401610849565b600181905560405181815233907f3582d1828e26bf56bd801502bc021ac0bc8afb57c826e4986b45593c8fad389c90602001610c09565b600081815260986020526040812054806125625750600092915050565b600083815260986020526040902061257b600183615941565b8154811061258b5761258b6156fa565b600091825260209091200154600160401b90046001600160c01b03169392505050565b60606000805b610100811015612604576001811b9150838216156125f457828160f81b6040516020016125e29291906159ce565b60405160208183030381529060405292505b6125fd81615726565b90506125b4565b5050919050565b60018260200151600281111561262357612623614d8a565b1461262d57505050565b81516040516333567f7f60e11b81526000906001600160a01b037f000000000000000000000000000000000000000000000000000000000000000016906366acfefe90612682908890869088906004016159fd565b6020604051808303816000875af11580156126a1573d6000803e3d6000fd5b505050506040513d601f19601f820116820180604052508101906126c59190615a24565b90506001600160c01b038116156126f1576126f1856126ec836001600160c01b03166125ae565b612ba5565b5050505050565b6001600160a01b0381166127865760405162461bcd60e51b815260206004820152604960248201527f5061757361626c652e5f73657450617573657252656769737472793a206e657760448201527f50617573657252656769737472792063616e6e6f7420626520746865207a65726064820152686f206164647265737360b81b608482015260a401610849565b600054604080516001600160a01b03620100009093048316815291831660208301527f6e9fcd539896fca60e8b0f01dd580233e48a6b0f7df013b89ba7f565869acdb6910160405180910390a1600080546001600160a01b03909216620100000262010000600160b01b0319909216919091179055565b3361280661182c565b6001600160a01b03161461181f5760405162461bcd60e51b815260206004820181905260248201527f4f776e61626c653a2063616c6c6572206973206e6f7420746865206f776e65726044820152606401610849565b609d54604080516001600160a01b03928316815291831660208301527f315457d8a8fe60f04af17c16e2f5a5e1db612b31648e58030360759ef8f3528c910160405180910390a1609d80546001600160a01b0319166001600160a01b0392909216919091179055565b609e54604080516001600160a01b03928316815291831660208301527f8f30ab09f43a6c157d7fce7e0a13c003042c1c95e8a72e7a146a21c0caa24dc9910160405180910390a1609e80546001600160a01b0319166001600160a01b0392909216919091179055565b6000610e8f61293b613ed2565b8360405161190160f01b6020820152602281018390526042810182905260009060620160405160208183030381529060405280519060200120905092915050565b6040805180820190915260008082526020820152600080806129ac600080516020615f0c83398151915286615a63565b90505b6129b881613ff9565b9093509150600080516020615f0c8339815191528283098314156129f2576040805180820190915290815260208101919091529392505050565b600080516020615f0c8339815191526001820890506129af565b600080612a188461407b565b90508015612abe578260ff168460018651612a339190615941565b81518110612a4357612a436156fa565b016020015160f81c10612abe5760405162461bcd60e51b815260206004820152603f60248201527f4269746d61705574696c732e6f72646572656442797465734172726179546f4260448201527f69746d61703a206269746d61702065786365656473206d61782076616c7565006064820152608401610849565b9392505050565b6096546000908190612adf9060019060ff1681901b615941565b9050612abe6001600160c01b0384811690831681161490565b60ff8216600081815260976020908152604091829020845181548684018051888701805163ffffffff90951665ffffffffffff199094168417600160201b61ffff938416021767ffff0000000000001916600160301b95831695909502949094179094558551918252518316938101939093525116918101919091527f3ee6fe8d54610244c3e9d3c066ae4aee997884aa28f10616ae821925401318ac9060600160405180910390a25050565b6001600160a01b0382166000908152609960205260409020805460018083015460ff166002811115612bd957612bd9614d8a565b14612c465760405162461bcd60e51b81526020600482015260436024820152600080516020615f2c83398151915260448201527f70657261746f723a206f70657261746f72206973206e6f7420726567697374656064820152621c995960ea1b608482015260a401610849565b609654600090612c5a90859060ff16612a0c565b90506000612c6783612545565b90506001600160c01b038216612cd35760405162461bcd60e51b815260206004820152603b6024820152600080516020615f2c83398151915260448201527f70657261746f723a206269746d61702063616e6e6f74206265203000000000006064820152608401610849565b612cdc82612ac5565b612d475760405162461bcd60e51b81526020600482015260426024820152600080516020615f2c83398151915260448201527f70657261746f723a20736f6d652071756f72756d7320646f206e6f74206578696064820152611cdd60f21b608482015260a401610849565b612d5e6001600160c01b0383811690831681161490565b612de45760405162461bcd60e51b81526020600482015260596024820152600080516020615f2c83398151915260448201527f70657261746f723a206f70657261746f72206973206e6f74207265676973746560648201527f72656420666f72207370656369666965642071756f72756d7300000000000000608482015260a401610849565b6001600160c01b0382811619821616612dfd8482614208565b6001600160c01b038116612ecc5760018501805460ff191660021790556040516351b27a6d60e11b81526001600160a01b0388811660048301527f0000000000000000000000000000000000000000000000000000000000000000169063a364f4da90602401600060405180830381600087803b158015612e7d57600080fd5b505af1158015612e91573d6000803e3d6000fd5b50506040518692506001600160a01b038a1691507f396fdcb180cb0fea26928113fb0fd1c3549863f9cd563e6a184f1d578116c8e490600090a35b60405163f4e24fe560e01b81526001600160a01b037f0000000000000000000000000000000000000000000000000000000000000000169063f4e24fe590612f1a908a908a90600401615a77565b600060405180830381600087803b158015612f3457600080fd5b505af1158015612f48573d6000803e3d6000fd5b505060405163bd29b8cd60e01b81526001600160a01b037f000000000000000000000000000000000000000000000000000000000000000016925063bd29b8cd9150612f9a9087908a90600401615a9b565b600060405180830381600087803b158015612fb457600080fd5b505af1158015612fc8573d6000803e3d6000fd5b505060405163bd29b8cd60e01b81526001600160a01b037f000000000000000000000000000000000000000000000000000000000000000016925063bd29b8cd915061301a9087908a90600401615a9b565b600060405180830381600087803b15801561303457600080fd5b505af1158015613048573d6000803e3d6000fd5b5050505050505050505050565b606480546001600160a01b038381166001600160a01b0319831681179093556040519116919082907f8be0079c531659141344cd1fd0a4f28419497f9722a3daafe3b4186f6b6457e090600090a35050565b6040516309aa152760e11b81526001600160a01b0383811660048301526000917f0000000000000000000000000000000000000000000000000000000000000000909116906313542a4e90602401602060405180830381865afa158015613112573d6000803e3d6000fd5b505050506040513d601f19601f820116820180604052508101906131369190615ab4565b905080610e8f577f00000000000000000000000000000000000000000000000000000000000000006001600160a01b031663bf79ce58848461317787610f43565b6040518463ffffffff1660e01b815260040161319593929190615acd565b6020604051808303816000875af11580156131b4573d6000803e3d6000fd5b505050506040513d601f19601f82011682018060405250810190612abe9190615ab4565b6020808201516000908152609a909152604090205460ff161561327e5760405162461bcd60e51b815260206004820152605260248201527f5265676973747279436f6f7264696e61746f722e5f766572696679436875726e60448201527f417070726f7665725369676e61747572653a20636875726e417070726f766572606482015271081cd85b1d08185b1c9958591e481d5cd95960721b608482015260a401610849565b42816040015110156133135760405162461bcd60e51b815260206004820152605260248201527f5265676973747279436f6f7264696e61746f722e5f766572696679436875726e60448201527f417070726f7665725369676e61747572653a20636875726e417070726f766572606482015271081cda59db985d1d5c9948195e1c1a5c995960721b608482015260a401610849565b602080820180516000908152609a909252604091829020805460ff19166001179055609d5490519183015161171e926001600160a01b039092169161335b91879187916123a2565b83516143c8565b61338660405180606001604052806060815260200160608152602001606081525090565b60006133ce86868080601f0160208091040260200160405190810160405280939291908181526020018383808284376000920191909152505060965460ff169150612a0c9050565b905060006133db88612545565b90506001600160c01b0382166134595760405162461bcd60e51b815260206004820152603960248201527f5265676973747279436f6f7264696e61746f722e5f72656769737465724f706560448201527f7261746f723a206269746d61702063616e6e6f742062652030000000000000006064820152608401610849565b61346282612ac5565b6134d6576040805162461bcd60e51b81526020600482015260248101919091527f5265676973747279436f6f7264696e61746f722e5f72656769737465724f706560448201527f7261746f723a20736f6d652071756f72756d7320646f206e6f742065786973746064820152608401610849565b8082166001600160c01b03161561358c5760405162461bcd60e51b815260206004820152606860248201527f5265676973747279436f6f7264696e61746f722e5f72656769737465724f706560448201527f7261746f723a206f70657261746f7220616c726561647920726567697374657260648201527f656420666f7220736f6d652071756f72756d73206265696e672072656769737460848201526732b932b2103337b960c11b60a482015260c401610849565b6001600160c01b03818116908316176135a58982614208565b887fec2963ab21c1e50e1e582aa542af2e4bf7bf38e6e1403c27b42e1c5d6e621eaa876040516135d59190615799565b60405180910390a260016001600160a01b038b1660009081526099602052604090206001015460ff16600281111561360f5761360f614d8a565b14613728576040805180820182528a8152600160208083018281526001600160a01b038f166000908152609990925293902082518155925183820180549394939192909160ff19169083600281111561366a5761366a614d8a565b021790555050604051639926ee7d60e01b81526001600160a01b037f0000000000000000000000000000000000000000000000000000000000000000169150639926ee7d906136bf908d908990600401615b4c565b600060405180830381600087803b1580156136d957600080fd5b505af11580156136ed573d6000803e3d6000fd5b50506040518b92506001600160a01b038d1691507fe8e68cef1c3a761ed7be7e8463a375f27f7bc335e51824223cacce636ec5c3fe90600090a35b604051631fd93ca960e11b81526001600160a01b037f00000000000000000000000000000000000000000000000000000000000000001690633fb2795290613778908d908c908c90600401615bc0565b600060405180830381600087803b15801561379257600080fd5b505af11580156137a6573d6000803e3d6000fd5b5050604051632550477760e01b81526001600160a01b037f0000000000000000000000000000000000000000000000000000000000000000169250632550477791506137fc908d908d908d908d90600401615be5565b6000604051808303816000875af115801561381b573d6000803e3d6000fd5b505050506040513d6000823e601f3d908101601f191682016040526138439190810190615c7b565b60408087019190915260208601919091525162bff04d60e01b81526001600160a01b037f0000000000000000000000000000000000000000000000000000000000000000169062bff04d906138a0908c908c908c90600401615cde565b6000604051808303816000875af11580156138bf573d6000803e3d6000fd5b505050506040513d6000823e601f3d908101601f191682016040526138e79190810190615cf8565b84525050509695505050505050565b6020808301516001600160a01b0380821660008181526099909452604090932054919290871614156139765760405162461bcd60e51b81526020600482015260356024820152600080516020615eec83398151915260448201527439371d1031b0b73737ba1031b43ab9371039b2b63360591b6064820152608401610849565b8760ff16846000015160ff16146139f35760405162461bcd60e51b81526020600482015260476024820152600080516020615eec83398151915260448201527f726e3a2071756f72756d4e756d626572206e6f74207468652073616d65206173606482015266081cda59db995960ca1b608482015260a401610849565b604051635401ed2760e01b81526004810182905260ff891660248201526000907f00000000000000000000000000000000000000000000000000000000000000006001600160a01b031690635401ed2790604401602060405180830381865afa158015613a64573d6000803e3d6000fd5b505050506040513d601f19601f82011682018060405250810190613a889190615d91565b9050613a948185614582565b6001600160601b0316866001600160601b031611613b275760405162461bcd60e51b81526020600482015260566024820152600080516020615eec83398151915260448201527f726e3a20696e636f6d696e67206f70657261746f722068617320696e7375666660648201527534b1b4b2b73a1039ba30b5b2903337b91031b43ab93760511b608482015260a401610849565b613b3188856145a6565b6001600160601b0316816001600160601b0316106123215760405162461bcd60e51b815260206004820152605c6024820152600080516020615eec83398151915260448201527f726e3a2063616e6e6f74206b69636b206f70657261746f722077697468206d6f60648201527f7265207468616e206b69636b424950734f66546f74616c5374616b6500000000608482015260a401610849565b60965460ff1660c08110613c3f5760405162461bcd60e51b815260206004820152603560248201527f5265676973747279436f6f7264696e61746f722e63726561746551756f72756d6044820152740e881b585e081c5d5bdc9d5b5cc81c995858da1959605a1b6064820152608401610849565b613c4a816001615dae565b6096805460ff191660ff9290921691909117905580613c698186612af8565b60405160016296b58960e01b031981526001600160a01b037f0000000000000000000000000000000000000000000000000000000000000000169063ff694a7790613cbc90849088908890600401615dd3565b600060405180830381600087803b158015613cd657600080fd5b505af1158015613cea573d6000803e3d6000fd5b505060405163136ca0f960e11b815260ff841660048201527f00000000000000000000000000000000000000000000000000000000000000006001600160a01b031692506326d941f29150602401600060405180830381600087803b158015613d5257600080fd5b505af1158015613d66573d6000803e3d6000fd5b505060405163136ca0f960e11b815260ff841660048201527f00000000000000000000000000000000000000000000000000000000000000006001600160a01b031692506326d941f29150602401600060405180830381600087803b158015613dce57600080fd5b505af1158015612321573d6000803e3d6000fd5b6000546201000090046001600160a01b0316158015613e0957506001600160a01b03821615155b613e8b5760405162461bcd60e51b815260206004820152604760248201527f5061757361626c652e5f696e697469616c697a655061757365723a205f696e6960448201527f7469616c697a6550617573657228292063616e206f6e6c792062652063616c6c6064820152666564206f6e636560c81b608482015260a401610849565b600181905560405181815233907fab40a374bc51de372200a8bc981af8c9ecdc08dfdaef0bb6e09f88f3c616ef3d9060200160405180910390a2613ece826126f8565b5050565b6000306001600160a01b037f000000000000000000000000000000000000000000000000000000000000000016148015613f2b57507f000000000000000000000000000000000000000000000000000000000000000046145b15613f5557507f000000000000000000000000000000000000000000000000000000000000000090565b50604080517f00000000000000000000000000000000000000000000000000000000000000006020808301919091527f0000000000000000000000000000000000000000000000000000000000000000828401527f000000000000000000000000000000000000000000000000000000000000000060608301524660808301523060a0808401919091528351808403909101815260c0909201909252805191012090565b60008080600080516020615f0c8339815191526003600080516020615f0c83398151915286600080516020615f0c83398151915288890909089050600061406f827f0c19139cb84c680a6e14116da060561765e05aa45a1c72a34f082305b61f3f52600080516020615f0c8339815191526145c0565b91959194509092505050565b6000610100825111156141045760405162461bcd60e51b8152602060048201526044602482018190527f4269746d61705574696c732e6f72646572656442797465734172726179546f42908201527f69746d61703a206f7264657265644279746573417272617920697320746f6f206064820152636c6f6e6760e01b608482015260a401610849565b815161411257506000919050565b60008083600081518110614128576141286156fa565b0160200151600160f89190911c81901b92505b84518110156141ff57848181518110614156576141566156fa565b0160200151600160f89190911c1b91508282116141eb5760405162461bcd60e51b815260206004820152604760248201527f4269746d61705574696c732e6f72646572656442797465734172726179546f4260448201527f69746d61703a206f72646572656442797465734172726179206973206e6f74206064820152661bdc99195c995960ca1b608482015260a401610849565b918117916141f881615726565b905061413b565b50909392505050565b600082815260986020526040902054806142ad576000838152609860209081526040808320815160608101835263ffffffff43811682528185018681526001600160c01b03808a16958401958652845460018101865594885295909620915191909201805495519351909416600160401b026001600160401b03938316600160201b0267ffffffffffffffff1990961691909216179390931716919091179055505050565b60008381526098602052604081206142c6600184615941565b815481106142d6576142d66156fa565b600091825260209091200180549091504363ffffffff9081169116141561431a5780546001600160401b0316600160401b6001600160c01b03851602178155610930565b805463ffffffff438116600160201b81810267ffffffff0000000019909416939093178455600087815260986020908152604080832081516060810183529485528483018481526001600160c01b03808c1693870193845282546001810184559286529390942094519401805493519151909216600160401b026001600160401b0391861690960267ffffffffffffffff199093169390941692909217179190911691909117905550505050565b6001600160a01b0383163b156144e257604051630b135d3f60e11b808252906001600160a01b03851690631626ba7e906144089086908690600401615a9b565b602060405180830381865afa158015614425573d6000803e3d6000fd5b505050506040513d601f19601f820116820180604052508101906144499190615e4c565b6001600160e01b0319161461171e5760405162461bcd60e51b815260206004820152605360248201527f454950313237315369676e61747572655574696c732e636865636b5369676e6160448201527f747572655f454950313237313a2045524331323731207369676e6174757265206064820152721d995c9a599a58d85d1a5bdb8819985a5b1959606a1b608482015260a401610849565b826001600160a01b03166144f6838361466f565b6001600160a01b03161461171e5760405162461bcd60e51b815260206004820152604760248201527f454950313237315369676e61747572655574696c732e636865636b5369676e6160448201527f747572655f454950313237313a207369676e6174757265206e6f742066726f6d6064820152661039b4b3b732b960c91b608482015260a401610849565b60208101516000906127109061459c9061ffff1685615e76565b612abe9190615ea5565b60408101516000906127109061459c9061ffff1685615e76565b6000806145cb6149dc565b6145d36149fa565b602080825281810181905260408201819052606082018890526080820187905260a082018690528260c08360056107d05a03fa925082801561461457614616565bfe5b50826146645760405162461bcd60e51b815260206004820152601a60248201527f424e3235342e6578704d6f643a2063616c6c206661696c7572650000000000006044820152606401610849565b505195945050505050565b600080600061467e858561468b565b91509150611fa6816146fb565b6000808251604114156146c25760208301516040840151606085015160001a6146b6878285856148b6565b945094505050506146f4565b8251604014156146ec57602083015160408401516146e18683836149a3565b9350935050506146f4565b506000905060025b9250929050565b600081600481111561470f5761470f614d8a565b14156147185750565b600181600481111561472c5761472c614d8a565b141561477a5760405162461bcd60e51b815260206004820152601860248201527f45434453413a20696e76616c6964207369676e617475726500000000000000006044820152606401610849565b600281600481111561478e5761478e614d8a565b14156147dc5760405162461bcd60e51b815260206004820152601f60248201527f45434453413a20696e76616c6964207369676e6174757265206c656e677468006044820152606401610849565b60038160048111156147f0576147f0614d8a565b14156148495760405162461bcd60e51b815260206004820152602260248201527f45434453413a20696e76616c6964207369676e6174757265202773272076616c604482015261756560f01b6064820152608401610849565b600481600481111561485d5761485d614d8a565b1415610cc45760405162461bcd60e51b815260206004820152602260248201527f45434453413a20696e76616c6964207369676e6174757265202776272076616c604482015261756560f01b6064820152608401610849565b6000807f7fffffffffffffffffffffffffffffff5d576e7357a4501ddfe92f46681b20a08311156148ed575060009050600361499a565b8460ff16601b1415801561490557508460ff16601c14155b15614916575060009050600461499a565b6040805160008082526020820180845289905260ff881692820192909252606081018690526080810185905260019060a0016020604051602081039080840390855afa15801561496a573d6000803e3d6000fd5b5050604051601f1901519150506001600160a01b0381166149935760006001925092505061499a565b9150600090505b94509492505050565b6000806001600160ff1b038316816149c060ff86901c601b6158e3565b90506149ce878288856148b6565b935093505050935093915050565b60405180602001604052806001906020820280368337509192915050565b6040518060c001604052806006906020820280368337509192915050565b60008083601f840112614a2a57600080fd5b5081356001600160401b03811115614a4157600080fd5b6020830191508360208260051b85010111156146f457600080fd5b60008060208385031215614a6f57600080fd5b82356001600160401b03811115614a8557600080fd5b614a9185828601614a18565b90969095509350505050565b600060208284031215614aaf57600080fd5b5035919050565b63ffffffff81168114610cc457600080fd5b600080600060608486031215614add57600080fd5b833592506020840135614aef81614ab6565b929592945050506040919091013590565b634e487b7160e01b600052604160045260246000fd5b604051606081016001600160401b0381118282101715614b3857614b38614b00565b60405290565b604080519081016001600160401b0381118282101715614b3857614b38614b00565b604051601f8201601f191681016001600160401b0381118282101715614b8857614b88614b00565b604052919050565b60006001600160401b03831115614ba957614ba9614b00565b614bbc601f8401601f1916602001614b60565b9050828152838383011115614bd057600080fd5b828260208301376000602084830101529392505050565b600060208284031215614bf957600080fd5b81356001600160401b03811115614c0f57600080fd5b8201601f81018413614c2057600080fd5b614c2f84823560208401614b90565b949350505050565b6001600160a01b0381168114610cc457600080fd5b8035614c5781614c37565b919050565b600060208284031215614c6e57600080fd5b8135612abe81614c37565b60008060408385031215614c8c57600080fd5b50508035926020909101359150565b803560ff81168114614c5757600080fd5b600060208284031215614cbe57600080fd5b612abe82614c9b565b815181526020808301519082015260408101610e8f565b60008083601f840112614cf057600080fd5b5081356001600160401b03811115614d0757600080fd5b6020830191508360208285010111156146f457600080fd5b60008060008060408587031215614d3557600080fd5b84356001600160401b0380821115614d4c57600080fd5b614d5888838901614a18565b90965094506020870135915080821115614d7157600080fd5b50614d7e87828801614cde565b95989497509550505050565b634e487b7160e01b600052602160045260246000fd5b60038110614dbe57634e487b7160e01b600052602160045260246000fd5b9052565b815181526020808301516040830191614ddd90840182614da0565b5092915050565b803561ffff81168114614c5757600080fd5b600060608284031215614e0857600080fd5b614e10614b16565b90508135614e1d81614ab6565b8152614e2b60208301614de4565b6020820152614e3c60408301614de4565b604082015292915050565b60008060808385031215614e5a57600080fd5b614e6383614c9b565b9150614e728460208501614df6565b90509250929050565b600080600060408486031215614e9057600080fd5b8335614e9b81614c37565b925060208401356001600160401b03811115614eb657600080fd5b614ec286828701614cde565b9497909650939450505050565b60006101008284031215614ee257600080fd5b50919050565b60008083601f840112614efa57600080fd5b5081356001600160401b03811115614f1157600080fd5b6020830191508360208260061b85010111156146f457600080fd5b600060608284031215614f3e57600080fd5b614f46614b16565b905081356001600160401b03811115614f5e57600080fd5b8201601f81018413614f6f57600080fd5b614f7e84823560208401614b90565b825250602082013560208201526040820135604082015292915050565b60008060008060008060008060006101a08a8c031215614fba57600080fd5b89356001600160401b0380821115614fd157600080fd5b614fdd8d838e01614cde565b909b50995060208c0135915080821115614ff657600080fd5b6150028d838e01614cde565b90995097508791506150178d60408e01614ecf565b96506101408c013591508082111561502e57600080fd5b61503a8d838e01614ee8565b90965094506101608c013591508082111561505457600080fd5b6150608d838e01614f2c565b93506101808c013591508082111561507757600080fd5b506150848c828d01614f2c565b9150509295985092959850929598565b60008060008060008061016087890312156150ae57600080fd5b86356001600160401b03808211156150c557600080fd5b6150d18a838b01614cde565b909850965060208901359150808211156150ea57600080fd5b6150f68a838b01614cde565b909650945084915061510b8a60408b01614ecf565b935061014089013591508082111561512257600080fd5b5061512f89828a01614f2c565b9150509295509295509295565b60006001600160401b0382111561515557615155614b00565b5060051b60200190565b6000806040838503121561517257600080fd5b823561517d81614ab6565b91506020838101356001600160401b0381111561519957600080fd5b8401601f810186136151aa57600080fd5b80356151bd6151b88261513c565b614b60565b81815260059190911b820183019083810190888311156151dc57600080fd5b928401925b828410156151fa578335825292840192908401906151e1565b80955050505050509250929050565b6020808252825182820181905260009190848201906040850190845b8181101561524757835163ffffffff1683529284019291840191600101615225565b50909695505050505050565b6000806020838503121561526657600080fd5b82356001600160401b0381111561527c57600080fd5b614a9185828601614cde565b6001600160601b0381168114610cc457600080fd5b600082601f8301126152ae57600080fd5b813560206152be6151b88361513c565b82815260069290921b840181019181810190868411156152dd57600080fd5b8286015b8481101561532e57604081890312156152fa5760008081fd5b615302614b3e565b813561530d81614c37565b81528185013561531c81615288565b818601528352918301916040016152e1565b509695505050505050565b600080600060a0848603121561534e57600080fd5b6153588585614df6565b9250606084013561536881615288565b915060808401356001600160401b0381111561538357600080fd5b61538f8682870161529d565b9150509250925092565b600082601f8301126153aa57600080fd5b813560206153ba6151b88361513c565b828152606092830285018201928282019190878511156153d957600080fd5b8387015b858110156153fc576153ef8982614df6565b84529284019281016153dd565b5090979650505050505050565b600082601f83011261541a57600080fd5b8135602061542a6151b88361513c565b82815260059290921b8401810191818101908684111561544957600080fd5b8286015b8481101561532e57803561546081615288565b835291830191830161544d565b600082601f83011261547e57600080fd5b8135602061548e6151b88361513c565b82815260059290921b840181019181810190868411156154ad57600080fd5b8286015b8481101561532e5780356001600160401b038111156154d05760008081fd5b6154de8986838b010161529d565b8452509183019183016154b1565b600080600080600080600080610100898b03121561550957600080fd5b61551289614c4c565b975061552060208a01614c4c565b965061552e60408a01614c4c565b955061553c60608a01614c4c565b94506080890135935060a08901356001600160401b038082111561555f57600080fd5b61556b8c838d01615399565b945060c08b013591508082111561558157600080fd5b61558d8c838d01615409565b935060e08b01359150808211156155a357600080fd5b506155b08b828c0161546d565b9150509295985092959890939650565b6000604082840312156155d257600080fd5b6155da614b3e565b90506155e582614c9b565b815260208201356155f581614c37565b602082015292915050565b6000806000806080858703121561561657600080fd5b843593506020808601356001600160401b0381111561563457600080fd5b8601601f8101881361564557600080fd5b80356156536151b88261513c565b81815260069190911b8201830190838101908a83111561567257600080fd5b928401925b8284101561569b576156898b856155c0565b82528482019150604084019350615677565b979a97995050505060408601359560600135949350505050565b60208101610e8f8284614da0565b60208082526019908201527f5061757361626c653a20696e6465782069732070617573656400000000000000604082015260600190565b634e487b7160e01b600052603260045260246000fd5b634e487b7160e01b600052601160045260246000fd5b600060001982141561573a5761573a615710565b5060010190565b60005b8381101561575c578181015183820152602001615744565b838111156109305750506000910152565b60008151808452615785816020860160208601615741565b601f01601f19169290920160200192915050565b602081526000612abe602083018461576d565b6000602082840312156157be57600080fd5b8151612abe81614c37565b6020808252602a908201527f6d73672e73656e646572206973206e6f74207065726d697373696f6e6564206160408201526939903ab73830bab9b2b960b11b606082015260800190565b60006020828403121561582557600080fd5b81518015158114612abe57600080fd5b60208082526028908201527f6d73672e73656e646572206973206e6f74207065726d697373696f6e6564206160408201526739903830bab9b2b960c11b606082015260800190565b6000808335601e1984360301811261589457600080fd5b8301803591506001600160401b038211156158ae57600080fd5b6020019150600581901b36038213156146f457600080fd5b6000602082840312156158d857600080fd5b8151612abe81614ab6565b600082198211156158f6576158f6615710565b500190565b6000808585111561590b57600080fd5b8386111561591857600080fd5b5050820193919092039150565b60006040828403121561593757600080fd5b612abe83836155c0565b60008282101561595357615953615710565b500390565b600060a0820187835260208781850152604060a08186015282885180855260c087019150838a01945060005b818110156159b5578551805160ff1684528501516001600160a01b0316858401529484019491830191600101615984565b5050606086019790975250505050608001529392505050565b600083516159e0818460208801615741565b6001600160f81b0319939093169190920190815260010192915050565b60018060a01b03841681528260208201526060604082015260006123e0606083018461576d565b600060208284031215615a3657600080fd5b81516001600160c01b0381168114612abe57600080fd5b634e487b7160e01b600052601260045260246000fd5b600082615a7257615a72615a4d565b500690565b6001600160a01b0383168152604060208201819052600090614c2f9083018461576d565b828152604060208201526000614c2f604083018461576d565b600060208284031215615ac657600080fd5b5051919050565b6001600160a01b03841681526101608101615af5602083018580358252602090810135910152565b615b0f606083016040860180358252602090810135910152565b60406080850160a084013760e0820160008152604060c0860182375060006101208301908152835190526020909201516101409091015292915050565b60018060a01b0383168152604060208201526000825160606040840152615b7660a084018261576d565b90506020840151606084015260408401516080840152809150509392505050565b81835281816020850137506000828201602090810191909152601f909101601f19169091010190565b6001600160a01b03841681526040602082018190526000906123e09083018486615b97565b60018060a01b0385168152836020820152606060408201526000615c0d606083018486615b97565b9695505050505050565b600082601f830112615c2857600080fd5b81516020615c386151b88361513c565b82815260059290921b84018101918181019086841115615c5757600080fd5b8286015b8481101561532e578051615c6e81615288565b8352918301918301615c5b565b60008060408385031215615c8e57600080fd5b82516001600160401b0380821115615ca557600080fd5b615cb186838701615c17565b93506020850151915080821115615cc757600080fd5b50615cd485828601615c17565b9150509250929050565b8381526040602082015260006123e0604083018486615b97565b60006020808385031215615d0b57600080fd5b82516001600160401b03811115615d2157600080fd5b8301601f81018513615d3257600080fd5b8051615d406151b88261513c565b81815260059190911b82018301908381019087831115615d5f57600080fd5b928401925b82841015615d86578351615d7781614ab6565b82529284019290840190615d64565b979650505050505050565b600060208284031215615da357600080fd5b8151612abe81615288565b600060ff821660ff84168060ff03821115615dcb57615dcb615710565b019392505050565b60006060820160ff8616835260206001600160601b03808716828601526040606081870152838751808652608088019150848901955060005b81811015615e3c57865180516001600160a01b031684528601518516868401529585019591830191600101615e0c565b50909a9950505050505050505050565b600060208284031215615e5e57600080fd5b81516001600160e01b031981168114612abe57600080fd5b60006001600160601b0380831681851681830481118215151615615e9c57615e9c615710565b02949350505050565b60006001600160601b0380841680615ebf57615ebf615a4d565b9216919091049291505056fe5265676973747279436f6f7264696e61746f722e7570646174654f70657261745265676973747279436f6f7264696e61746f722e5f76616c696461746543687530644e72e131a029b85045b68181585d97816a916871ca8d3c208c16d87cfd475265676973747279436f6f7264696e61746f722e5f646572656769737465724fa2646970667358221220286afd6e02bf84255547edeabc5359e76627fd64f60687f4d864fc376ca7f73164736f6c634300080c0033","linkReferences":{}},"methodIdentifiers":{"OPERATOR_CHURN_APPROVAL_TYPEHASH()":"ca0de882","PUBKEY_REGISTRATION_TYPEHASH()":"9feab859","blsApkRegistry()":"5df45946","calculateOperatorChurnApprovalDigestHash(bytes32,(uint8,address)[],bytes32,uint256)":"f8581191","churnApprover()":"054310e6","createQuorum((uint32,uint16,uint16),uint96,(address,uint96)[])":"d75b4c88","deregisterOperator(bytes)":"ca4f2d97","ejectOperator(address,bytes)":"6e3b17db","ejector()":"28f61b31","getCurrentQuorumBitmap(bytes32)":"871ef049","getOperator(address)":"5865c60c","getOperatorFromId(bytes32)":"296bb064","getOperatorId(address)":"13542a4e","getOperatorSetParams(uint8)":"e65797ad","getOperatorStatus(address)":"fd39105a","getQuorumBitmapAtBlockNumberByIndex(bytes32,uint32,uint256)":"04ec6351","getQuorumBitmapHistoryLength(bytes32)":"03fd3492","getQuorumBitmapIndicesAtBlockNumber(uint32,bytes32[])":"c391425e","getQuorumBitmapUpdateByIndex(bytes32,uint256)":"1eb812da","indexRegistry()":"9e9923c2","initialize(address,address,address,address,uint256,(uint32,uint16,uint16)[],uint96[],(address,uint96)[][])":"dd8283f3","isChurnApproverSaltUsed(bytes32)":"1478851f","numRegistries()":"d72d8dd6","owner()":"8da5cb5b","pause(uint256)":"136439dd","pauseAll()":"595c6a67","paused()":"5c975abb","paused(uint8)":"5ac86ab7","pauserRegistry()":"886f1195","pubkeyRegistrationMessageHash(address)":"3c2a7f4c","quorumCount()":"9aa1653d","quorumUpdateBlockNumber(uint8)":"249a0c42","registerOperator(bytes,string,((uint256,uint256),(uint256,uint256),(uint256[2],uint256[2])),(bytes,bytes32,uint256))":"a50857bf","registerOperatorWithChurn(bytes,string,((uint256,uint256),(uint256,uint256),(uint256[2],uint256[2])),(uint8,address)[],(bytes,bytes32,uint256),(bytes,bytes32,uint256))":"9b5d177b","registries(uint256)":"6347c900","renounceOwnership()":"715018a6","serviceManager()":"3998fdd3","setChurnApprover(address)":"29d1e0c3","setEjector(address)":"2cdd1e86","setOperatorSetParams(uint8,(uint32,uint16,uint16))":"5b0b829f","setPauserRegistry(address)":"10d67a2f","stakeRegistry()":"68304835","transferOwnership(address)":"f2fde38b","unpause(uint256)":"fabc1cbc","updateOperators(address[])":"00cf2ab5","updateOperatorsForQuorum(address[][],bytes)":"5140a548","updateSocket(string)":"0cf4b767"},"id":29}